S022000050726163746963655F315F43616C63756C61746F725F38626974732E6F626A07
S11101004F7665666C6F77436F727265637439
S1231960A620C718024510B0944F5F8C3FB03FB13FB13FB56EFF006E00016E00026E000369
S12319806E38B16E92B201000803000505000220F5451388AFFF65000026F90100120300E5
S12319A00505000720E04E02B120DB4E02B220D64FB600A41841000B41081A41101E4118E6
S12319C02D20C34FB6B1BBB2B7B585A48041804E41005420B14FB6B1B0B220AAAD1242BFA4
S12319E0B5AEB5E701B6B3B8B4418024209820960EB10EBEB16E00B30EB20EB6B26E00B406
S1231A0081BEB1506E80B320EFB6B2406E80B481AEB573630155B5AF0135B5CC19864FC6A9
S1151A200100B7B7CC19864FC60107B7B7CC198620FEC2
S9030000FC
