S022000050726163746963655F315F43616C63756C61746F725F38626974732E6F626A07
S11101004F7665666C6F77436F727265637439
S1231960A620C718024510B0944F5F8C3FB03FB13FB13FB33FB43FB56EFF006E00016E00F7
S1231980026E00036E7FB16EFDB201000803000505000220F5451388AFFF65000026F901D5
S12319A0001203000505000720E04E02B120DB4E02B220D64FB600A41841000B41081A4158
S12319C0101E41182D20C34FB6B1BBB2B7B585A48041806841006E20B14FB6B1B0B220AAA9
S12319E0AD2442BFB5AEB5E701B6B3B8B441803620988CAD1152B7B54F52B7B68CB6B3B8CA
S1231A00B441803020840EB10EB6B16E00B30EB20EBEB26E00B481B6B1406E80B320EFBE2E
S1231A20B2506E80B481AEB573630155B5AF0135B5CC198AB6B540B7B5CC198A4FC6010094
S1131A40B7B7CC198A4FC60107B7B7CC198A20FE9D
S9030000FC
